:100000000C945F0E0C949F0E0C949F0E0C949F0EFC
:100010000C949F0E0C949F0E0C949F0E0C949F0EAC
:100020000C949F0E0C949F0E0C949F0E0C949F0E9C
:100030000C949F0E0C949F0E0C949F0E0C949F0E8C
:100040000C949F0E0C9478740C949F0E0C949F0E3D
:100050000C949F0E0C943A6C0C949F0E0C94B56A01
:100060000C949F0E0C94C2740C94B8740C949F0E54
:100070000C949F0E0C949F0E0C949F0E0C949F0E4C
:100080000C949F0E0C949F0E0C949F0E0C949F0E3C
:100090000C949F0E0C949F0E0C949F0E0C949F0E2C
:1000A0000C949F0E0C949F0E0C949F0E0C949F0E1C
:1000B0000C949F0E0C949F0E0C949F0E0C949F0E0C
:1000C0000C949F0E0C949F0E0C949F0E0C949F0EFC
:1000D0000C949F0E0C949F0E0C949F0E0C949F0EEC
:1000E0000C949F0E084AD73B3BCE016E84BCBFFDEB
:1000F000C12F3D6C74319ABD56833DDA3D00C77FF8
:1001000011BED9E4BB4C3E916BAAAABE0000008090
:100110003F05A84CCDB2D44EB93836A9020C50B91F
:10012000918688083CA6AAAA2ABE000000803F004B
:100130004E414E494E495459494E46CDCCCC3D0ACC
:10014000D7233C17B7D13877CC2B329595E6241FAF
:10015000B14F0A000020410000C84200401C462068
:10016000BCBE4CCA1B0E5AAEC59D74434F4D4D5577
:100170004E49434154494F4E0044525952554E0046
:100180004552524F525300494E464F004543484F47
:10019000006563686F3A004572726F723A002044DE
:1001A0000020204D323030205300202844697361F4
:1001B000626C6564293A0046696C616D656E7420F5
:1001C00073657474696E67730020204D323031207E
:1001D00058004D617820416363656C657261746994
:1001E0006F6E2028756E6974732F7332290020207A
:1001F0004D3230332058004D617820666565647259
:10020000617465732028756E6974732F73290020DB
:10021000520020204D323034205000416363656C21
:1002200065726174696F6E2028756E6974732F73BF
:1002300032292028503C7072696E742D61636365A9
:100240006C3E20523C726574726163742D6163630D
:10025000656C3E20543C74726176656C2D616363FD
:10026000656C3E2900204A002054002053002020C5
:100270004D323035204200416476616E6365642002
:1002800028423C6D696E5F7365676D656E745F745F
:10029000696D655F75733E20533C6D696E5F666581
:1002A0006564726174653E20543C6D696E5F747262
:1002B0006176656C5F66656564726174653E204A4F
:1002C0003C6A756E635F6465763E290020440020B9
:1002D000490020204D333031205000486F74656E46
:1002E00064205049440020440020490020204D3320
:1002F0003034205000426564205049440020496E4B
:1003000076616C696420657874727564657220002A
:1003100020204D323036205800486F6D65206F66C2
:1003200066736574004361703A0020746F6F206CCF
:100330006F6E6720657874727573696F6E20707266
:100340006576656E7465640A0020636F6C64206571
:100350007874727573696F6E2070726576656E74ED
:1003600065640A0020573A0020573A005061726BCA
:100370006F76C3A16EC3AD2073656C68616C6F004E
:100380006F70656E00545249474745524544003AE4
:1003900020007A5F6D696E00795F6D696E00785F2D
:1003A0006D696E005265706F7274696E6720656E5C
:1003B0006473746F70207374617475730A0057618D
:1003C000726E696E673A20486F6D696E672042757C
:1003D0006D702044697669736F72203C20310A0089
:1003E0000202040000A0400000A040000000400005
:1003F000000001000000010000800055555500007C
:1004000000400033333300AAAA2A00499224000096
:10041000002000C7711C0099991900D1451700559B
:100420005515003BB11300244912001111110000B1
:100430000010000F0F0F00E3380E0043790D00CCC1
:10044000CC0C00C3300C00E8A20B0064210B00AA06
:10045000AA0A00703D0A009DD80900427B0900925B
:10046000240900DCD3080088880800104208000036
:10047000000800F0C107008787070075500700716A
:100480001C07003EEB0600A1BC0600699006006652
:10049000660600703E06006118060017F405007439
:1004A000D105005BB00500B29005006272050055F1
:1004B00055050078390500B81E0500050505004EF4
:1004C000EC040087D40400A1BD040090A7040049F7
:1004D000920400C17D0400EE690400C75604004484
:1004E0004404005C320400082104004110040000B0
:1004F0000004003FF00300F8E0030026D20300C32D
:10050000C30300CCB503003AA803000A9B030038DC
:100510008E0300C08103009F750300D06903005063
:100520005E03001D53030034480300913D03003374
:1005300033030016290300381F030097150300300A
:100540000C0300030303000BFA020049F10200BA96
:10055000E802005CE002002DD802002DD002005914
:10056000C80200B0C0020031B90200DAB10200AA2C
:10057000AA0200A0A30200BC9C0200FA9502005C43
:100580008F0200DF88020082820200457C02002781
:1005900076020027700200436A02007C640200D0E9
:1005A0005E02003F590200C8530200FFFDFCFAF84A
:1005B000F6F4F2F0EEECEAE9E7E5E3E1E0DEDCDABE
:1005C000D9D7D5D4D2D0CFCDCBCAC8C7C5C3C2C066
:1005D000BFBDBCBAB9B7B6B4B3B2B0AFADACAAA9DF
:1005E000A8A6A5A4A2A1A09E9D9C9A99989795942F
:1005F0009392908F8E8D8B8A89888786848382815F
:10060000807F7E7D7B7A797877767574737271706E
:100610006F6E6D6C6B6A6968676665646362616062
:100620005F5E5D5C5B5A595858575655545352514A
:1006300050504F4E4D4C4B4A4A4948474646454418
:1006400043424241403F3E3E3D3C3B3B3A393838D5
:1006500037363535343332323130302F2E2E2D2C83
:100660002B2B2A2929282727262525242323222125
:100670002120201F1E1E1D1C1C1B1B1A19191818B7
:10068000171616151514131312121111100F0F0E41
:100690000E0D0D0C0C0B0A0A0909080807070606BF
:1006A000050504040303020201000000005C43008E
:1006B00000664300007A43000000C00000A0C000B4
:1006C000000000290A002062797465733B20637280
:1006D00063200053657474696E67732053746F727E
:1006E0006564202800454550524F4D20496E69747D
:1006F00069616C697A65640A0048617264636F6459
:1007000065642044656661756C7420536574746912
:100710006E6773204C6F616465640020286D6D29DD
:100720000020204D3134392043203B20556E697420
:100730007320696E2043656C736975730A00546594
:100740006D706572617475726520556E69747300A1
:100750002020473231203B004C696E656172205584
:100760006E69747300454550524F4D206461746149
:1007700073697A65206572726F722E0A0020286391
:10078000616C63756C6174656429210A0020213DE8
:100790002000454550524F4D20435243206D697310
:1007A0006D61746368202D202873746F72656429ED
:1007B0002000454550524F4D20436F727275707442
:1007C0000A002053697A653A2000496E6465783AD8
:1007D0002000290A002062797465733B20637263EC
:1007E00020002073746F7265642073657474696E81
:1007F00067732072657472696576656420280000ED
:10080000009643000096430000484200002042004A
:1008100000A0420000A0420000C8430080DE43D098
:10082000070000D00700006400000010270000202F
:100830004D61726C696E3D563838290A0045455045
:10084000524F4D2076657273696F6E206D69736DBE
:10085000617463682028454550524F4D3D00204348
:100860006F756E7420583A00004500626564002C74
:100870002073797374656D2073746F707065642173
:10088000204865617465725F49443A2000565953A7
:100890004F4BC381205445504C4F5441004D41585B
:1008A00054454D5020747269676765726564004EE7
:1008B000C38D5A4B41205445504C4F5441004D4933
:1008C0004E54454D502074726967676572656400C7
:1008D000202F002042403A0020403A0020014001F1
:1008E00030013B01400136016001310170012C01F2
:1008F00090012701B0012201C0011D01F001180182
:100900001002130130020E0160020901900204017D
:10091000C002FF000003FA004003F5008003F0006E
:10092000D003EB002004E6007004E100E004DC00EA
:100930004005D700C005D2004006CD00D006C80053
:100940008007C3003008BE00F008B900C009B40039
:10095000B00AAF00B00BAA00D00CA500000EA0009A
:10096000500F9B00C01096005012910000148C0094
:10097000C0158700B0178200B0197D00D01B780029
:10098000001E730040206E0090226900F024640075
:1009900040275F0090295A00E02B5500102E500090
:1009A00020304B0010324600E033410090353C00CF
:1009B0001037370070383200A0392D00B03A2800C7
:1009C000A03B2300603C1E00103D1900903D140028
:1009D000103E0F00703E0A00C03E0500003F0000C0
:1009E000403FFBFF803FF6FFC03FF1FF2020506CEF
:1009F000616E6E6572427566666572427974657382
:100A00003A20002046726565204D656D6F72793A17
:100A1000200020436F6D70696C65643A204D6172EF
:100A200020313920323032350A00204C6173742075
:100A3000557064617465643A20323032342D31313E
:100A40002D3138207C20417574686F723A2028500F
:100A5000657472205A656D616E290A004D61726C71
:100A6000696E20322E312E322E350A0020536F66E9
:100A700074776172652052657365740A002057614E
:100A8000746368646F672052657365740A0020425E
:100A9000726F776E206F75742052657365740A00EB
:100AA0002045787465726E616C2052657365740AB6
:100AB00000506F77657255700A0073746172740A22
:100AC00000656E6473746F7073206869743A2000F7
:100AD00000002200250028002B002E0031003400E9
:100AE00002010000050108010B01050505050705C8
:100AF00008080808020202020A0A0808040404049A
:100B000001010101010101010303030303030303C5
:100B1000040707070C0C0C0C0C0C0C0C0202020254
:100B200006060606060606060B0B0B0B0B0B0B0B3D
:100B300001021020200808102040102040800201EF
:100B400002010804020101020408102040808040D4
:100B500020100804020180040201804020100804D3
:100B60000201080402010102040810204080010271
:100B700004081020408000000A0B02090C0D0E082A
:100B80000703040100000000000000000000000056
:100B90000000000000000000000000000000000055
:100BA0000000121110000000000000000000000012
:100BB00000000000000000000000000024F404D940
:100BC000201BC40C5C0E9804C4095F026507710108
:100BD000F405F900FB04B30048048700C103690071
:100BE0005803550003034500BE023A008402310059
:100BF00053022A002902250004022000E4011C00FF
:100C0000C8011900AF0117009801140084011300F6
:100C1000710110006101100051010E0043010D002F
:100C200036010B002B010B0020010B001501090000
:100C30000C01090003010800FB000800F300080094
:100C4000EB000700E4000600DE000600D800060006
:100C5000D2000600CC000500C7000500C200050058
:100C6000BD000400B9000400B5000400B100040098
:100C7000AD000400A9000400A5000300A2000300C9
:100C80009F0004009B0003009800030095000200F1
:100C900093000300900003008D0002008B0003000E
:100CA0008800020086000200840003008100020028
:100CB0007F0002007D0002007B000200790002003C
:100CC000770001007600020074000200720001004B
:100CD000710002006F0002006D0001006C00020054
:100CE0006A0001006900020067000100660001005F
:100CF0006500010064000200620001006100010063
:100D0000600001005F0002005D0001005C00010066
:100D10005B0001005A000100590001005800010069
:100D20005700010056000100550001005400010069
:100D30005300000053000100520001005100010067
:100D4000500001004F0001004E0000004E00010065
:100D50004D0001004C0001004B0000004B00010061
:100D60004A0001004900010048000000480001005D
:100D70004700010046000000460001004500000059
:100D80004500010044000100430000004300010051
:100D9000420000004200010041000000410001004B
:100DA000400001003F0000003F0001003E00000045
:100DB0003E0001003D0000003D0001003C0000003D
:100DC0003C0000003C0001003B0000003B00010033
:100DD0003A0000003A00010039000000390001002B
:100DE0003800000038000000380001003700000023
:100DF0003700010036000000360000003600010018
:100E0000350000003500000035000100340000000E
:100E10003400000034000100330000003300000003
:100E200033000100320000003200000032000100F7
:100E300031000000310000003100010030000000EE
:100E400030000000300001002F0000002F000000E3
:100E50002F0000002F0001002E0000002E000000D7
:100E60002E0001002D0000002D0000002D000000CC
:100E70002D0001002C0000002C0000002C000000C0
:100E80002C0001002B0000002B0000002B000000B4
:100E90002B0001002A0000002A0000002A000000A8
:100EA0002A0001002900000029000000290000009C
:100EB000290000002900010028000000280000008F
:100EC0002800000028000000280001002700000082
:100ED0002700000027000000270000002700010075
:100EE000260000002600000026000000260000006A
:100EF000260001002500000025000000250000005C
:100F0000250000002500000025000100240000004D
:100F10002400000024000000240000002400010040
:100F20002300000023000000230000002300000035
:100F30002300000023000000230001002200000025
:100F40002200000022000000220000002200000019
:100F5000220001002100000021000000210000000B
:100F600021000000210000002100000021000100FC
:100F700020000000200000002000000020000000F1
:100F800020000000200000002000000020000100E0
:100F90001F0000001F0000001F0000001F000000D5
:100FA0001F0000001F0000001F0001001E000000C5
:100FB0001E0000001E0000001E00000024F4D430BB
:100FC00050C38E20C2A24017828B7011127A910DED
:100FD000816CD90AA861E108C758660761514306C8
:100FE0001E4B5D05C145A7041A411104093D980334
:100FF000713931034036DB0265339102D43054023B
:10100000802E1D02632CEE01752AC501B028A001B7
:10101000102781018F2564012B244B01E02234012C
:10102000AC211F018D200D01801FFC00841EED00EE
:10103000971DDF00B81CD200E61BC600201BBC00B9
:10104000641AB200B219A8000A19A0006A1899001F
:10105000D117910040178B00B516840031167E0021
:10106000B31579003A157300C7146F0058146A005D
:10107000EE1366008813630025135E00C7125B0041
:101080006C12570015125400C111510070114F001D
:1010900021114B00D61049008D1047004610440026
:1010A00002104200C00F4000800F3E00420F3C0083
:1010B000060F3B00CB0E3800930E37005C0E350058
:1010C000270E3400F30D3200C10D3100900D3000B9
:1010D000600D2E00320D2D00050D2C00D90C2B00BB
:1010E000AE0C2900850C29005C0C2700350C27006C
:1010F0000E0C2600E80B2400C40B2400A00B2300D8
:101100007D0B23005A0B2100390B2100180B200006
:10111000F80A1F00D90A1E00BB0A1E009D0A1D0006
:10112000800A1D00630A1C00470A1B002C0A1B00D2
:10113000110A1A00F7091A00DD091900C40919007B
:10114000AB091900920917007B0918006309170001
:101150004C09160036091600200916000A09150068
:10116000F5081500E0081400CC081400B8081400B5
:10117000A4081400900813007D0812006B081300E7
:101180005808120046081200340811002308110004
:101190001208110001081100F0071000E00710000C
:1011A000D0071000C0071000B0070F00A107100003
:1011B00091070E0083070F0074070F0065070E00EC
:1011C00057070E0049070E003B070D002E070E00C3
:1011D00020070D0013070D0006070D00F9060C008F
:1011E000ED060D00E0060C00D4060C00C8060C004D
:1011F000BC060C00B0060C00A4060B0099060C00FF
:101200008D060B0082060B0077060B006C060B00A8
:1012100061060A0057060B004C060A0042060A0047
:1012200038060A002E060A0024060A001A060A00DA
:101230001006090007060A00FD050900F40509006B
:10124000EB050900E2050900D9050900D0050900F0
:10125000C7050900BE050900B5050800AD05080071
:10126000A50509009C050800940508008C050800E8
:10127000840508007C050800740508006C0507005B
:10128000650508005D050700560508004E050700C6
:10129000470507004005080038050700310507002D
:1012A0002A050700230507001C0506001605070090
:1012B0000F0507000805060002050700FB040600ED
:1012C000F5040700EE040600E8040600E204070047
:1012D000DB040600D5040600CF040600C90406009E
:1012E000C3040600BD040600B7040600B1040500EF
:1012F000AC040600A6040600A00405009B0406003A
:1013000095040500900406008A0405008504050084
:10131000800406007A0405007504050070040500C9
:101320006B04050066040500610405005C0405000B
:1013300057040500520405004D040500480405004B
:10134000430405003E0404003A040500350405008A
:10135000300404002C0405002704040023040500C5
:101360001E0404001A0404001604050011040400FD
:101370000D04040009040500040404000004040032
:10138000FC030400F8030400F4030400F003040069
:10139000EC030400E8030400E4030400E003040099
:1013A000DC030400D8030400D4030400D0030400C9
:1013B000CC030400C8030300C50303007229000026
:1013C000E520000049170000B60E00007908000073
:1013D0009504000063020000380100006F6B0049B3
:1013E0006E76616C69642065787472756465720AE2
:1013F00000454550524F4D204F4B0A00446F6DC57C
:10140000AF202573207072766EC3AD00486F6D6596
:1014100020257320466972737400546F6F206661D3
:10142000722066726F6D204D494E2F4D41580A0053
:10143000000000C00000A0C000000000206661693C
:101440006C65642120426164206865617465722066
:1014500069640A00504944204175746F74756E6563
:101460000023646566696E652044454641554C54C9
:101470005F0000626564004B6420004B6920004BF4
:101480007020002066696E6973686564212050755C
:101490007420746865206C617374204B702C204B31
:1014A0006920616E64204B6420636F6E7374616E9B
:1014B00074732066726F6D2062656C6F7720696E41
:1014C000746F20436F6E66696775726174696F6EC1
:1014D0002E680A00504944204175746F74756E651A
:1014E00000206661696C6564212074696D656F75A3
:1014F000740A00504944204175746F74756E65001C
:101500005445504C4F544EC38D20C39A4E494B0006
:10151000546865726D616C2052756E6177617900F7
:101520004368796261207A6168C599C3AD76C3A1C9
:101530006EC3AD0048656174696E67206661696C51
:10154000656400206661696C6564212054656D7076
:101550006572617475726520746F6F206869676861
:101560000A00504944204175746F74756E650020FF
:101570004B643A2000204B693A2000204B703A20FF
:101580000020436C617373696320504944200A0052
:10159000204E6F206F76657273686F6F740A00203B
:1015A00054753A2000204B753A2000206D61783A3E
:1015B0002000206D696E3A200020643A20002062ED
:1015C0006961733A20002073746172740A00504993
:1015D00044204175746F74756E6500206661696C96
:1015E0006564212054656D70657261747572652043
:1015F000746F6F20686967680A005049442041751C
:10160000746F74756E650064697300656E004329BC
:101610000A0061626C656420286D696E2074656DD6
:10162000702000436F6C6420657874727564657314
:1016300020617265200020466C6F773A2000250AF1
:101640000046523A002058004F4646004F4E003B9D
:10165000200020204D61783A2000200020204D6994
:101660006E3A2000203B200020204D3231312053A3
:10167000003F4A206F7574206F662072616E676547
:101680002028302E303120746F20302E33290A006C
:101690002F2F00434F4E4649475F4558504F5254F5
:1016A000004D4541545041434B00434F4F4C455230
:1016B0005F54454D504552415455524500434841B1
:1016C0004D4245525F54454D504552415455524547
:1016D00000424142595354455050494E47004152EF
:1016E0004353004D4F54494F4E5F4D4F44455300B7
:1016F000544845524D414C5F50524F544543544914
:101700004F4E00455854454E4445445F4D323000DD
:10171000435553544F4D5F4649524D574152455FD3
:1017200055504C4F4144004C464E5F57524954452A
:10173000004C4F4E475F46494C454E414D45004198
:1017400055544F5245504F52545F53445F53544188
:101750005455530053445F57524954450052455025
:10176000454154005344434152440050524F4D5060
:10177000545F535550504F525400484F53545F419B
:101780004354494F4E5F434F4D4D414E44530045E6
:101790004D455247454E43595F50415253455200C3
:1017A000434153455F4C494748545F42524947487B
:1017B000544E45535300544F47474C455F4C49479F
:1017C00048545300534F4654574152455F504F576A
:1017D0004552004255494C445F50455243454E5492
:1017E000004C4556454C494E475F44415441005AD0
:1017F0005F50524F42450052554E4F55540041558F
:10180000544F4C4556454C005052494E545F4A4F38
:10181000420050524F4752455353004155544F5286
:1018200045504F52545F54454D50004155544F520E
:1018300045504F52545F504F5300564F4C554D45F5
:101840005452494300454550524F4D0042494E4184
:1018500052595F46494C455F5452414E534645529A
:101860000053455249414C5F584F4E5F584F4646D2
:10187000004649524D574152455F4E414D453A4D04
:1018800061726C696E20322E312E322E3520284D39
:10189000617220313920323032352030303A3335E0
:1018A0003A34352920534F555243455F434F444501
:1018B0005F55524C3A6769746875622E636F6D2F7D
:1018C0004D61726C696E4669726D776172652F4DFC
:1018D00061726C696E2050524F544F434F4C5F56AB
:1018E000455253494F4E3A312E30204D41434849DD
:1018F0004E455F545950453A417274696C6C65723B
:10190000792047656E697573202D2032303235207D
:1019100045585452554445525F434F554E543A3101
:1019200020555549443A63656465326132662D3409
:101930003161322D343734382D396231322D6335EF
:1019400035633632663336376666004D31313320C3
:1019500053006F6666008C018701800179016B017D
:1019600044454255473A006F6B002569730025696D
:101970006D20256973002569682025696D2025691A
:101980007300256964202569682025696D20256913
:1019900073002569792025696420256968202569F7
:1019A0006D20256973005072696E742074696D65CD
:1019B0003A200000005E4300006B4300007A43477A
:1019C000322F47332062616420706172616D6574EB
:1019D0006572730A00FFFFFFDB0FC93F45BCDA3FAA
:1019E0008FB30240FCF0274056946140FE4B9B4071
:1019F00084A5D840E0231841346A5641E8599741FC
:101A000064DBD5416E271742B4B75542CE1A9742D0
:101A1000C8AED542B5885A43D40684BFA65FA7BFD7
:101A20007443E0BF10B11AC01C2C58C0E8F697C030
:101A3000B849D6C04E4E17C124D355C1802497C192
:101A4000A0B5D5C1121A17C244AE55C2781797C2B5
:101A50006CACD5C267885AC320746F6F206C6F6EF0
:101A60006720657874727573696F6E207072657621
:101A7000656E7465640A0020636F6C642065787419
:101A8000727573696F6E2070726576656E746564C9
:101A90000A00220A00556E6B6E6F776E20636F6DC1
:101AA0006D616E643A202200204500205A002059C2
:101AB0000020204D39322058005374657073207017
:101AC000657220756E697400627573793A20706171
:101AD0007573656420666F7220696E7075740A0094
:101AE000627573793A2070617573656420666F72F0
:101AF00020757365720A00627573793A2070726F8F
:101B000063657373696E670A00746F6F206D756328
:101B10006820696E6163746976652074696D6520FB
:101B20002D2063757272656E7420636F6D6D616ECA
:101B3000643A20002121204B494C4C20636175738D
:101B4000656420627920004D31313220536875740C
:101B5000646F776E005072696E7465722073746F73
:101B6000707065642064756520746F206572726F93
:101B700072732E2046697820746865206572726FD2
:101B80007220616E6420757365204D393939207477
:101B90006F20726573746172742E202854656D70A5
:101BA00065726174757265206973207265736574FE
:101BB0002E205365742069742061667465722072EA
:101BC000657374617274696E67290A004E6F2043F1
:101BD0006865636B73756D2077697468206C696ED6
:101BE00065206E756D6265722C204C617374204C9B
:101BF000696E653A2000636865636B73756D206D6F
:101C000069736D617463682C204C617374204C6936
:101C10006E653A20004C696E65204E756D62657286
:101C2000206973206E6F74204C617374204C696E50
:101C300065204E756D6265722B312C204C6173747A
:101C4000204C696E653A20004D3131300053657289
:101C500069616C20737461747573206D69736D6153
:101C60007463680A006F6B0A00526573656E643AAC
:101C7000200020453A00205A3A0020593A00583AAC
:101C8000004572726F722077726974696E67207492
:101C90006F20454550524F4D210A005072696E74B5
:101CA00065722068616C7465642E206B696C6C28A9
:101CB000292063616C6C6564210A0000EC741124B6
:101CC0001FBECFEFD1E2DEBFCDBF00E00CBF84B7B7
:101CD00080938B0D14BE0FB6F894A8958091600088
:101CE000886180936000109260000FBE12E0A0E057
:101CF000B2E0E8E1FBE001E00BBF02C007900D920B
:101D0000A43FB107D9F72DE0A4EFB2E001C01D92C6
:101D1000AB38B207E1F71EE0CFE5DEE000E006C039
:101D200021970109802FFE010E947C82CE35D107C8
:101D300080E00807A9F70E9471750C948A850C94BD
:101D40000000FC0120818091FC0C9091FD0C9227F9
:101D500028E0AC01880F991F57FD07C02150C9F733
:101D60009093FD0C8093FC0C0895F1E28F27F0E135
:101D70009F27F4CFCF92DF92EF92FF920F931F93A2
:101D80002CEB33E141E0F901C590D590E590F4905A
:101D9000C616D706E806F90658F4969587957795FE
:101DA0006795440F2C5F3F4F53E1283D350759F7A6
:101DB00040931304613271058105910568F4ECEBE1
:101DC000FFE06591749190E080E01F910F91FF908A
:101DD000EF90DF90CF900895DC01CB018097A109AF
:101DE000B109811528E09207A105B105C8F044E0CA
:101DF000949F900111242454344FF9013296459157
:101E00005491F901259134916627859FF001849FB3
:101E1000000CE11DF61F11242E1B3F0BB901D3CF7F
:101E20008C019D0136952795179507950C7F0454D5
:101E3000104FF80125913491F80132964591549153
:101E4000682F6770649FC001659F900D112443E067
:101E5000969587954A95E1F7281B390BDFCF282FF8
:101E600030E0F901EA58F44F9491F901E05DF44F44
:101E700044912651354FF9012491222309F435C0AC
:101E8000992311F191509231F8F4E92FF0E088276D
:101E9000E35BF04F8F4F0C947C827E0F820F5F0FBD
:101EA000760F7A0F640F850F8B0F8F0F950F990F99
:101EB0009D0FA30FA70F640FAB0FB10FB50F80914C
:101EC00080008F7780938000E22FF0E0EE0FFF1FFD
:101ED000E053F54FA591B4918FB7F894EC9161114F
:101EE00048C040954E234C938FBF08958091800049
:101EF0008F7DE8CF80918000877FE4CF84B58F7796
:101F000084BDE2CF84B58F7DFBCF8091B0008F7709
:101F10008093B000D9CF8091B0008F7DF9CF8091B0
:101F200090008F7780939000CFCF809190008F7D2D
:101F3000F9CF80919000877FF5CF8091A0008F77B7
:101F40008093A000C1CF8091A0008F7DF9CF8091B8
:101F5000A000877FF5CF809120018F7780932001AB
:101F6000B3CF809120018F7DF9CF80912001877FB1
:101F7000F5CF4E2BB8CF3FB7F89480910F049091D6
:101F80001004A0911104B091120426B5A89B05C0BD
:101F90002F3F19F00196A11DB11D3FBFBA2FA92FE8
:101FA000982F8827BC01CD01620F711D811D911DE5
:101FB00042E0660F771F881F991F4A95D1F7089551
:101FC0008F929F92AF92BF92CF92DF92EF92FF9249
:101FD0006B017C01D0DF4B015C01C114D104E10431
:101FE000F104B1F0C8DF681979098A099B09683ED4
:101FF00073408105910588F321E0C21AD108E108F8
:10200000F10888EE880E83E0981EA11CB11CE5CF74
:10201000FF90EF90DF90CF90BF90AF909F908F9008
:1020200008952FB7F89460910B0470910C0480917F
:102030000D0490910E042FBF08952F923F924F925E
:102040005F926F927F928F929F92AF92BF92CF9248
:10205000DF92EF92FF920F931F93CF93DF9300D005
:1020600000D0CDB7DEB7DC010D90BC91A02DBE83B2
:10207000AD8318966D917C91072E000C880B990BFF
:102080000E943D7E6B017C0120E030E0A9010E94AE
:10209000377E8823E1F0AD81BE8114968D919D91AC
:1020A0000D90BC91A02D89839A83AB83BC839C0146
:1020B000AD01C701B6010E9496824B015C0120E090
:1020C00030E040E251EC0E94377E87FF08C081E09B
:1020D000ED81FE818387C12CD12C7601DCC020E00C
:1020E00030E040E251E4C501B4010E94BD841816FD
:1020F00064F481E0AD81BE811B968C93C12CD12C00
:102100008FE7E82E83E4F82EC6C0ED81FE8183853B
:10211000882349F013861486158616861786148E32
:10212000158E168E178EAD81BE8194964D905D9062
:102130006D907C9097971C962D913D914D915C915F
:102140001F97C501B4010E949782F62EE72ED82E64
:10215000C92E20E030E0A9010E94377E87FDB6C07D
:10216000A301920160E070E08FE793E40E94738323
:10217000162F072F382E292E2F2D3E2D4D2D5C2D5D
:102180000E94377E87FF02C0780161018F2D9E2D4E
:10219000AD2DBC2DED81FE8184879587A687B787FD
:1021A00020A131A142A153A1C501B4010E949C7E8E
:1021B0004B015C01AD81BE8154968D929D92AD9292
:1021C000BC9257972F2D3E2D4D2D5C2DC301B20192
:1021D0000E949C7E2B013C01ED81FE81408E518E40
:1021E000628E738EC48CD58CE68CF78C29813A81F3
:1021F0004B815C8160897189828993890E94968272
:10220000AD81BE8198962D913D914D915C919B97AA
:102210000E949C7EA70196010E94968220ED3CECD4
:102220004CE45DE30E949C7EA70196010E94978288
:102230006B017C01ED81FE81C48ED58EE68EF78E1A
:1022400089819A81AB81BC81808B918BA28BB38B6E
:10225000A3019201C501B4010E949782A7019601D2
:102260000E94978220E030E0A9010E9497826B01D2
:102270007C0120E030E0A9010E94377E87FD2BCF52
:1022800020E030E04FE753E4C701B6010E94BD846F
:1022900018160CF433CFC701B60126960FB6F89482
:1022A000DEBF0FBECDBFDF91CF911F910F91FF9089
:1022B000EF90DF90CF90BF90AF909F908F907F90E6
:1022C0006F905F904F903F902F900895F12CE12CEC
:1022D000D12CC12C5BCFCF93DF93C091440DD09113
:1022E000450D209721F16091400D7091410D809135
:1022F000420D9091430D0E94DB836E5F7F4F2697C6
:102300006C177D07A4F47093BC036093BB0389DE54
:10231000605C73468F4F9F4F6093BD037093BE0305
:102320008093BF039093C003DF91CF9108951092E3
:10233000BD031092BE031092BF031092C003F4CFEE
:102340008F929F92AF92BF92CF92DF92EF92FF92C5
:102350000F931F93CF93DF93B4E4A0E06A2F70E054
:10236000AB014B0F511D55954795411119C0EEED2D
:10237000F8E065917491072E000C880B990B0E9470
:102380003D7EDF91CF911F910F91FF90EF90DF90F5
:10239000CF90BF90AF909F908F900895B42FE0CFD3
:1023A000A41711F0B41303C0EAEEF9E0E2CF9A01EA
:1023B00021503109220F331F220F331FF901E4523C
:1023C000F74FE590F490F901E052F74FC591D491A1
:1023D0008E159F0518F3A42FC817D90708F4BECF90
:1023E000F901E252F74F05911491F901EE51F74FBF
:1023F000C590D4908E199F09BC0190E080E00E94A6
:102400003B7E4B015C01B601601B710B072E000C7B
:10241000880B990B0E943D7E9B01AC01C501B40164
:102420000E949C7E4B015C01CE19DF09BE0190E049
:1024300080E00E943B7E9B01AC01C501B4010E947B
:1024400073836B017C01B801110F880B990B0E94FB
:102450003D7E9B01AC01C701B6010E94978291CFDE
:10246000CF93DF93C8E6D8E020E030E048E452E4C0
:102470006091400D7091410D8091420D9091430DFE
:102480000E94BD8487FF13C080E0FE01C4912091AB
:10249000020190E002C095958795CA95E2F780FD0C
:1024A0000EC0207120930001DF91CF910895FE01AD
:1024B000949181E001C0880F9A95EAF7E6CF2095C4
:1024C000F0CF80919A03882339F06091820D70914A
:1024D000830D8091840D089560E070E080E00895A0
:1024E000FC0190E1AAE8B3E001900D929A95E1F722
:1024F0000895BC01209187033091880340918703A0
:10250000509188032417350731F481E026173707E7
:1025100009F080E008959A01F1CFEF92FF920F93B6
:102520001F93E0920103F0920203009303031093C0
:1025300004036093050370930603809307039FEFE2
:10254000FF27621B730B840B30F4809570956195A7
:10255000790B890B992790930003A6E06A9F00925C
:10256000F402512DEE277A9F500DE11D8A9FE00D58
:102570005093F502E093F602AFE06A9F0092F802F2
:10258000512DEE277A9F500DE11D8A9FE00D50934B
:10259000F902E093FA02AAE06A9F0092FC02512D30
:1025A000EE277A9F500DE11D8A9FE00D5093FD02AA
:1025B000E093FE021F910F91FF90EF90089500C0ED
:1025C000000080E090E00197F0F78091C50380FF64
:1025D00028C0899A8FEF809340038091C50381FFC3
:1025E00023C08F9A8FEF809341038091C50382FFB0
:1025F0001EC080910B0182708093090143988FEF78
:10260000809342038091C50383FF1AC016988FEF11
:102610008093430300C0000080E090E00197F0F752
:102620000895899881E0D7CF8F9881E0DCCF8091A1
:102630000B018095827080930901439A81E0E0CF7D
:10264000169A81E0E5CF80913F03877F80933F0317
:10265000129A81E00895129880913F0388608093D8
:102660003F03089521E030E0082E02C0220F331FFF
:102670000A94E2F72095309590913F032923209307
:102680003F03813061F020F0823071F081E00895E5
:102690005F9A8091C4038E7F8093C403F7CF8A9A98
:1026A0008091C4038D7FF8CF80910801809581705F
:1026B00080930601479A8091C4038B7FEDCF80E021
:1026C000D1DF81E0CFDF82E0CDDFBDCF813089F087
:1026D00070F0823081F021E030E001C0220F8A9555
:1026E000EAF780913F03822B80933F0308955F9820
:1026F000F2CF8A98F0CF90910801917090930601E3
:102700004798E9CFCF93DF93EC01C43081E0D8073D
:1027100064F184E091E09093450D8093440DC4E012
:10272000D1E06091400D7091410D8091420D9091EA
:10273000430D0E94DB836E5F7F4F26976C177D07EA
:10274000D4F47093BC036093BB036BDC605C734692
:102750008F4F9F4F6093BD037093BE038093BF0361
:102760009093C003DF91CF910895D093450DC0930E
:10277000440D2097B1F61092BD031092BE03109243
:10278000BF031092C003EECFCF93DF9380911B0461
:10279000811119C0C0911102D0911202219720E03D
:1027A00030E040E05FE36091400D7091410D809119
:1027B000420D9091430D0E9497820E94DB8321E09D
:1027C0006C177D070CF020E0822FDF91CF910895E8
:1027D0009F92AF92BF92CF92DF92EF92FF920F93B0
:1027E0001F93CF93DF9300D01F921F92CDB7DEB718
:1027F000EBEAF5E00027BB27462F572FA82FAA2387
:1028000041F4A52F542FB85FAA2319F4A52F5527FB
:10281000B85FA03138F45295A295452F4F70507F84
:10282000A42BBC5FA03428F4550FAA1F550FAA1F74
:10283000BE5FA03818F4550FAA1FB395550FAA1FF5
:10284000EA0FF01F449151E0AA27B85079F1C0F087
:10285000B0FF02C0440F551FB1FF04C0440F551F05
:10286000440F551FB2FF06C052954295142F1F709A
:10287000407F512BB3FF1AC0A52F542F442716C0F9
:10288000B195B0FF02C055954795B1FF04C055956D
:10289000479555954795B2FF05C05295407F4295A3
:1028A000452B5F70B3FF02C0452F5527DD24CC2494
:1028B000BB24B2E0649FD018C108B00AB00B749F6B
:1028C000C018B108B00B849FB018B109659FC0183B
:1028D000B108B00B759FB018B109859FB0196A9FF8
:1028E000B018B1097A9FB0194D9DA12C99243327B6
:1028F000992722275D9DA00C911C301F901F201F3F
:10290000AD9D900C311D901F201F4C9DA00C911C63
:10291000301F901F201F5C9D900C311D901F201FA9
:10292000AC9D300D911D201F4B9D900C311D901FB3
:10293000201F5B9D300D911D201FAB9D900D211D13
:102940004B9F300D911D201F5B9F900D211DAB9F54
:10295000200DB1E0BB24CC24DD24639FD018C10836
:10296000B00AB00B739FC018B108B00B839FB018AA
:10297000B109699FC018B108B00B799FB018B109AF
:10298000899FB019629FB018B109729FB019D61A09
:10299000C70AB80A20F0B1E03B0F901F201F112496
:1029A000792F632F90E0822F0F900F900F900F9050
:1029B0000F90DF91CF911F910F91FF90EF90DF90DB
:1029C000CF90BF90AF909F900895AF92BF92CF925B
:1029D000DF92EF92FF920F931F93CF93DF93C6EA9C
:1029E000D4E00EE714E086EBA82E84E0B82EC12CCC
:1029F000D12C7601C39469917991899199910E9422
:102A00003B7E288939894A895B890E949C7E0E9485
:102A1000E083F80161937193819391938F01C616BE
:102A2000D706E806F90610F46B017C01AC16BD066A
:102A300011F76FEF7FEFCB01A70196010E94118282
:102A400020938E0430938F0440939004509391040C
:102A5000DF91CF911F910F91FF90EF90DF90CF907A
:102A6000BF90AF900895CF92DF92EF92FF92809146
:102A70003404882309F457C0C0903004D090310446
:102A8000E0903204F090330420E030E0A901C70167
:102A9000B6010E94377E882309F445C020E030E06B
:102AA00040E05FE3C701B6010E949C7E9B01AC0140
:102AB0000E949C7E2BED3FE049E450E40E949C7E06
:102AC0009B01AC0160E070E080E89FE30E947383AB
:102AD0006B017C01C0922004D0922104E092220478
:102AE000F09223046091130270911402072E000CDF
:102AF000880B990B0E943D7E2AE037ED43E25CE3B0
:102B00000E949C7EA70196010E949C7E60933702E2
:102B1000709338028093390290933A02FF90EF90BD
:102B2000DF90CF900895C12CD12C80E8E82E8FE360
:102B3000F82ED0CF90916F0081E091FD02C080E02F
:102B4000089590916F009D7F90936F000895EFE638
:102B5000F0E08081826080830895ECDF91E09093C3
:102B600089038111F4CF0895CF92DF92EF92FF9203
:102B7000CF93DF93C82FDEDF94E0C99FE0011124DB
:102B8000FE01E657FC4FC080D180E280F3808111C6
:102B9000DEDFCD56DB4FC701B6010E943D7E2881A6
:102BA00039814A815B810E949C7EDF91CF91FF90A9
:102BB000EF90DF90CF9008958F3010F48F5F0895DD
:102BC0008F500895CF93DF9390916C0D80916B0D92
:102BD000891740F0891B41F4D0E0C0E0CE01DF91BD
:102BE000CF910895805FF6CF9091680D992351F0B1
:102BF000833030F48FEF890F19F08093680DECCF9C
:102C00001092680DC0916C0D87E5C89FE0011124FA
:102C1000CB56D94F888180FDDFCF80916C0DCCDF02
:102C20008093690D90916C0D80916A0D9813D6CFA9
:102C30008091690D80936A0DD1CFFC017081472F7F
:102C400050E0062E02C0559547950A94E2F740FFE2
:102C500014C040913E0350E0062E02C055954795A2
:102C60000A94E2F740FF09C021E030E001C0220FE2
:102C70006A95EAF72095272320830895CF93DF9361
:102C800024E0829FC0011124EC01C251D34FFC010A
:102C9000EC5DFB4F835C9B4FDC012D913D914D9191
:102CA0005C9160817181828193810E9497826883A7
:102CB00079838A839B83DF91CF910895CF93DF93AC
:102CC0001F92CDB7DEB7898360E0CE010196B5DFF4
:102CD00061E0CE010196B1DF62E0CE010196ADDF89
:102CE00089810F90DF91CF9108958F929F92AF923B
:102CF000BF92CF92DF92EF92FF92CF93DF9320911A
:102D00001702222309F48EC0EC0180913E03E82EC5
:102D100080FF2CC08090190290901A02A0901B0294
:102D2000B0901C02288139814A815B81C501B401C0
:102D30000E94BD84181624F488829982AA82BB82DC
:102D40008090250290902602A0902702B090280241
:102D5000288139814A815B81C501B4010E94377E97
:102D600087FF04C088829982AA82BB82E1FE2CC0C0
:102D700080901D0290901E02A0901F02B090200231
:102D80002C813D814E815F81C501B4010E94BD84CB
:102D9000181624F48C829D82AE82BF828090290214
:102DA00090902A02A0902B02B0902C022C813D81A1
:102DB0004E815F81C501B4010E94377E87FF04C048
:102DC0008C829D82AE82BF82E2FE2CC0C090210226
:102DD000D0902202E0902302F090240228853985C9
:102DE0004A855B85C701B6010E94BD84181624F48C
:102DF000C886D986EA86FB86C0902D02D0902E0226
:102E0000E0902F02F0903002288539854A855B8555
:102E1000C701B6010E94377E87FF04C0C886D986E5
:102E2000EA86FB86DF91CF91FF90EF90DF90CF9005
:102E3000BF90AF909F908F900895CF93DF93809134
:102E4000310365995BC081608093310390910301E8
:102E50008091310391FD54C0826080933103809151
:102E600031034B994FC084608093310380913103CB
:102E700090913003981709F447C092E090932F0384
:102E80008093300380914A04882309F44AC0C0919A
:102E90007A03C0FF0FC08091C50380FF0BC08091F3
:102EA0002E0380FF07C0809109048160809309048C
:102EB00080E053DEC1FF0FC08091C50381FF0BC0CE
:102EC00080912E0381FF07C0809109048260809366
:102ED000090481E042DEC2FF24C08091C50382FF65
:102EE00020C080912E0382FF1CC080910904846061
:102EF0008093090482E0DF91CF912FCE8E7FA4CF03
:102F00008D7FABCF8B7FB0CF80912F03882309F4C7
:102F1000B9CF815080932F038111B4CF90932E03AA
:102F2000B1CFDF91CF9108950F931F9380913C040F
:102F3000813011F576D800912A0310912B0320914E
:102F40002C0330912D03601B710B820B930B28EE29
:102F500033E040E050E00E941182609126037091BE
:102F600027038091280390912903620F731F841F08
:102F7000951F1F910F910895609138047091390445
:102F800080913A0490913B04D6CF10923C04109269
:102F90002A0310922B0310922C0310922D031092EF
:102FA00038041092390410923A0410923B041092A3
:102FB00026031092270310922803109229030895E4
:102FC00080913C048130D9F08230B9F4ADDF609358
:102FD000260370932703809328039093290381E0AD
:102FE00080933C041ED860932A0370932B03809334
:102FF0002C0390932D0381E00895C7DFF0CF80E08C
:10300000089580913C048150823068F410923C0411
:1030100008D8609338047093390480933A049093ED
:103020003B0481E0089580E008952091440D3091A3
:10303000450D263531053CF42091180D3091190DC0
:10304000263031051CF0882319F0BACF6111D9CF91
:103050000895CF93DF93C091180DD091190D20974B
:1030600029F16091140D7091150D8091160D9091BC
:10307000170D0E94DB836E5F7F4F24976C177D07CF
:10308000ACF47093A7036093A6030E941110605ADA
:1030900075418F4F9F4F6093A8037093A90380934E
:1030A000AA039093AB03DF91CF9108951092A803E8
:1030B0001092A9031092AA031092AB03F4CFCF93FE
:1030C000DF931092FC04CCE3DDE01986188603D967
:1030D0001A862C98C0E1DDE019861886BADF1A86B8
:1030E00080910201807280930001DF91CF91089559
:1030F00090E080E008952091810D833021F425FD3A
:103100000CC024FD0CC030E0A90102C055954795C4
:103110008A95E2F7CA018170089581E0089580E000
:1031200008958091510484FD0BC08091530487FD64
:1031300007C090915404937081E019F480E00895E1
:1031400081E008952FEB280F2A3108F047C0E22FC5
:10315000F0E08091510490915204A0915304B091F9
:10316000540404C0B695A795979587952A95D2F7EC
:1031700080FD02C081700895E45FFC4FE081EE2382
:1031800041F18091FE049091FF04E80FF92FF11DA9
:10319000808190ED980F9A3030F08E3251F4818119
:1031A00080538A3098F4F0935604E093550481E0FC
:1031B00008958D3211F08B3249F4818190ED980F92
:1031C0009A3088F38E3211F48281EACFF0E0E0E0A9
:1031D000EACF1092560410925504E9CF80E008958A
:1031E000B1DF882341F081E02091550430915604ED
:1031F000232B09F480E0089581E00895CF93DF93B5
:10320000EC01E62F660FFF0BEA58F44FE491E25011
:10321000E13108F0B0C0F0E08827EE5EF64E8F4F47
:103220000C947C822319BB19BB19BB19BB194D190E
:103230002F1971196F194F19951993197319BB1912
:10324000B919B719971982E1EAE5F2E0DE010190B8
:103250000D928A95E1F7CE01DF91CF91089581E03B
:1032600020EB30E03983288321EB30E03B832A8355
:103270001D821C8223EB30E03F832E8324EB30E061
:10328000398728871B861A861D861C8692E09E87B2
:103290008F8781E0888B198ADECF80E0E1CF81E0E3
:1032A0008F5F20E930E03983288321E930E03B83D8
:1032B0002A8322E930E03D832C8328E930E03F83F4
:1032C0002E832AE930E0398728872CE930E03B87D4
:1032D0002A8726E930E03D872C8793E0D8CF80E02D
:1032E000DFCF80E0DECF81E08F5F20EA30E03983FE
:1032F000288321EA30E03B832A8322EA30E03D83C1
:103300002C8328EA30E03F832E832AEA30E0398795
:1033100028872CEA30E03B872A8726EA30E03D8781
:103320002C8794E0B4CF80E0DFCF80E0DECF81E077
:103330008F5F20E231E03983288321E231E03B8353
:103340002A8322E231E03D832C8328E231E03F836F
:103350002E832AE231E0398728872CE231E03B874F
:103360002A8726E231E03D872C8795E090CF80E0E8
:10337000DFCF80E0DECF82E1FE0111928A95E9F78E
:103380006ACFEF92FF920F931F93CF93DF93CDB746
:10339000DEB762970FB6F894DEBF0FBECDBF6115E2
:1033A000710579F460E062960FB6F894DEBF0FBE47
:1033B000CDBFDF91CF911F910F91FF90EF900C94B3
:1033C0002F0F6F3F710511F461E0EDCF8B01F82EE7
:1033D000682FCE01019612DF8989882309F477C00E
:1033E000E981FA819F858889911134C0608190E0DC
:1033F00023E030E0A901481B590B440F551F042E50
:1034000001C0220F0A94EAF72095262362E070E0BB
:1034100001C0660F4A95EAF7262B2083FC013396FC
:10342000EE0FFF1F21E030E02C0F3D1FE20FF31FD6
:103430000190F081E02D1183008362960FB6F8941D
:10344000DEBF0FBECDBFDF91CF911F910F91FF90D7
:10345000EF9008952A892111F0CFAFEFB0E09230BC
:1034600029F0AD85BE850D90BC91A02D608190E0C6
:1034700023E030E0A901481B590B440F551F042ECF
:1034800001C0220F0A94EAF72095262362E070E03B
:1034900001C0660F4A95EAF7262B20830396880F12
:1034A000991FE1E0F0E0EC0FFD1F8E0F9F1FFC0164
:1034B000E080F18098010E9459822FEF30E040E0D7
:1034C00050E00E941182F70131832083B6CF61E082
:1034D0000F37110508F460E08F2D65CFCF93DF9390
:1034E000EC01688170E085E04CDF698170E084E088
:1034F00048DF6A8170E086E044DF88819981482F47
:10350000490F5527551F8A81840F952F911D21E062
:10351000833091050CF420E020939A0303974CF03C
:1035200088819981AA818093820D9093830DA093C5
:10353000840DDF91CF9108958F929F92AF92BF92A9
:10354000CF92DF92EF92FF92CF93DF9300D0CDB76F
:10355000DEB72FEF8417950731F16A01052E000CB5
:10356000EE08FF084C01092E000CAA08BB086817DA
:1035700079072CF0CB01461757070CF4CA019C01C0
:10358000990F440B550B281939094A095B09AFEF0C
:10359000B0E00E944F82A7019601281939094A0913
:1035A0005B090E94338280911504821751F02093A9
:1035B00015048FEF89831A8220952B83CE01019603
:1035C0008DDF0F900F900F90DF91CF91FF90EF90D4
:1035D000DF90CF90BF90AF909F908F9008958F9283
:1035E0009F92AF92BF92CF92DF92EF92FF92CF93D2
:1035F000DF9300D0CDB7DEB72FEF8417950731F1F9
:103600006A01052E000CEE08FF084C01092E000C83
:10361000AA08BB08681779072CF0CB014617570793
:103620000CF4CA019C01990F440B550B2819390958
:103630004A095B09AFEFB0E00E944F82A7019601F3
:10364000281939094A095B090E94338280911504BF
:10365000821749F02093150429831A828FEF8B83F8
:10366000CE0101963BDF0F900F900F90DF91CF912D
:10367000FF90EF90DF90CF90BF90AF909F908F9092
:1036800008959091C00095FFFCCF8093C6000895E7
:103690008F929F92AF92BF92EF92FF921F93CF9320
:1036A000DF93CDB7DEB7A0970FB6F894DEBF0FBE9D
:1036B000CDBF611571058105910589F120E04AE0D2
:1036C000842E912CA12CB12C11E0120FEE24E39446
:1036D000F12CEC0EFD1EE20EF11C27FDFA94A50163
:1036E00094010E941182F7016083B901CA01212F60
:1036F000611571058105910539F7115008F1E1E077
:10370000F0E0EC0FFD1FE10FF11D17FDFA95908120
:1037100087E39A3008F480E3890FB3DFEECF80E3CC
:10372000A0960FB6F894DEBF0FBECDBFDF91CF914C
:103730001F91FF90EF90BF90AF909F908F90A1CF7F
:10374000A0960FB6F894DEBF0FBECDBFDF91CF912C
:103750001F91FF90EF90BF90AF909F908F90089532
:10376000CF92DF92EF92FF926B017C01F7FE0AC0CD
:10377000F094E094D094C094C11CD11CE11CF11CC5
:103780008DE27FDFC701B601FF90EF90DF90CF9011
:103790007FCFE6CFBC01990F880B990BE1CF8F92B9
:1037A0009F92AF92BF92CF92DF92EF92FF926B0106
:1037B0007C0120E030E0A9010E94377E87FF06C02F
:1037C0008DE25FDFF7FAF094F7F8F0942BE037ED35
:1037D00043EA5BE3C701B6010E9497824B015C019B
:1037E0000E94E0836B017C010E943B7E9B01AC0147
:1037F000C501B4010E9496824B015C01C701B6016C
:1038000047DF8EE23EDF20E030E040E251E4C501D8
:10381000B4010E949C7E6B017C010E94E0834B01FD
:103820005C0136DFC501B4010E943B7E9B01AC0107
:10383000C701B6010E94968220E030E040E251E4E8
:103840000E949C7E0E94E083FF90EF90DF90CF90DB
:10385000BF90AF909F908F901BCFCF93DF93EC01E1
:103860008991882311F00DDFFBCFDF91CF9108956F
:10387000F4DF8DE006DF8AE004CFCF93DF93EC0125
:10388000FE0184912196882311F0FBDEF9CFDF91B0
:10389000CF910895CF92DF92EF92FF92E5E0FCE0A6
:1038A00080818183C090870CD090880CE090890C37
:1038B000F0908A0C8FEFC81AD80AE80AF80A89E64D
:1038C0009CE1DBDFC701B60164DF8AE0DADE85E672
:1038D0009CE1FF90EF90DF90CF90CFCFCF93DF931D
:1038E000EB01CBDFBE0190E080E0DF91CF91D0CE45
:1038F000EF92FF920F931F93CF937B018A01C2E453
:103900008F3F09F0C4E580E2BCDE8C2FBADE8AE38B
:10391000B8DEF701608171818281938140DF80EDA3
:1039200098E0ABDFF801608171818281938137DF9C
:1039300062E070E080E090E0CF911F910F91FF90E6
:10394000EF900C94E00F0F931F93CF93DF9300D071
:1039500000D01F921F92CDB7DEB7182F6091440D93
:103960007091450D072E000C880B990B0E943D7E2F
:103970006D837E838F8398878091400D9091410D58
:10398000A091420DB091430D89839A83AB83BC8390
:10399000AE014B5F5F4FBE016F5F7F4F80E8A8DFD6
:1039A0006091180D7091190D072E000C880B990B62
:1039B0000E943D7E6D837E838F8398878091140D56
:1039C0009091150DA091160DB091170D89839A83D2
:1039D000AB83BC83AE014B5F5F4FBE016F5F7F4F18
:1039E0008FEF86DF00911A0D1F3F39F08CE218022D
:1039F000F0011124E45CF24F028510E088ED98E0BC
:103A00003CDFC801C7DE00911A0D10E083ED98E09D
:103A100034DFC801BFDE28960FB6F894DEBF0FBEB4
:103A2000CDBFDF91CF911F910F910895CF92DF927B
:103A3000EF92FF92CF93DF93EC01C880D980EA80A8
:103A4000FB808EE598E019DFC701B601A2DECC80CD
:103A5000DD80EE80FF808AE79CE10FDFC701B601C1
:103A600098DEC884D984EA84FB8486E79CE105DF7C
:103A7000C701B6018EDE8AE0DF91CF91FF90EF9013
:103A8000DF90CF90FECD0F931F93CF938C01C62F65
:103A900085E293E0F2DEC801F0DE8AE3F2DD80E346
:103AA0008C0FEFDD8AE0CF911F910F91EACD87E96E
:103AB00091E0E3CE81E991E0E0CECF93DF93FADFAE
:103AC000C091FE04D091FF0485E99AE1D6DECE01D3
:103AD000C4DE82E99AE1DF91CF91CFCE0F931F939D
:103AE000CF93811111C0C42F8B01E4DF8FE496E1E5
:103AF000C4DEC801C2DECC2339F08AE3C2DD8AE02D
:103B0000CF911F910F91BDCDCF911F910F9108952E
:103B1000CF93C82F41E0E2DFC11102C0CF91CACFDD
:103B2000CF910895CF92DF92EF92FF926A017B01CD
:103B3000A4DEC701B601FF90EF90DF90CF902FCEAB
:103B40004F925F926F927F928F929F92AF92BF92AD
:103B5000CF92DF92EF92FF920F931F93CF93DF9359
:103B6000CAE4D2E04C845D846E847F840EEE1CE057
:103B7000F80124813581468157816C817D818E8158
:103B80009F810E9497824B015C01F801208531855D
:103B900042855385688579858A859B850E949782B1
:103BA0006B017C01F8012081318142815381688160
:103BB00079818A819B810E949782AB01BC018EE74B
:103BC0009CE1B0DFB501A4018AE79CE1ABDFB7015E
:103BD000A60186E79CE1A6DFB301A20182E79CE192
:103BE000DF91CF911F910F91FF90EF90DF90CF90D9
:103BF000BF90AF909F908F907F906F905F904F900D
:103C000091CFCF93DF93CDB7DEB72C970FB6F89453
:103C1000DEBF0FBECDBF94DF0E949A159CE0EAE89C
:103C2000F3E0DE01119601900D929A95E1F7811172
:103C30000E94A715CE010196F9DE2C960FB6F894D6
:103C4000DEBF0FBECDBFDF91CF910895CF93DF933D
:103C500069EB7AE15DDFC6EAD4E04C895D896E8963
:103C60007F8981EB9AE15EDF488D598D6A8D7B8D6E
:103C70008EEA9AE157DF4C8D5D8D6E8D7F8D8BEADC
:103C80009AE150DF48A159A16AA17BA188EA9AE193
:103C900049DF8AE0DF91CF91F4CCCF93C82F41E088
:103CA0006BED72E01BDFC11101C004DF40915C0DC0
:103CB00050915D0D60915E0D70915F0D82ED92E00F
:103CC00031DF21E732EB47E25EE36091600D7091F6
:103CD000610D8091620D9091630D0E947383AB0121
:103CE000BC018FEC92E01EDF21E732EB47E25EE39E
:103CF0006091640D7091650D8091660D9091670DD6
:103D00000E949C7EAB01BC018CEC92E00BDF8AE050
:103D1000CF91B7CC07DF8AE0B4CCCF93DF9369E1D2
:103D200073E0F6DEC4E2D4E0488159816A817B8188
:103D300080E193E0F7DE4C815D816E817F818EEAC8
:103D40009AE1F0DE488559856A857B858BEA9AE1A0
:103D5000DF91CF91DFCFCF93DF9365EF72E0D8DEB5
:103D6000C0E1DDE048A159A16AA17BA18CEE92E0FF
:103D7000D9DE21E732EB47E25EE36CA17DA18EA1A3
:103D80009FA10E947383AB01BC0189EE92E0CADE61
:103D900021E732EB47E25EE368A579A58AA59BA5FA
:103DA0000E949C7EAB01BC0186EE92E0DF91CF9138
:103DB000B1CFCF9381110EC040E067EB71E08EDE92
:103DC00080913404811103C08AEA91E056DD8AE0D3
:103DD00058DC70DEC091340481EA91E04EDD6C2F36
:103DE00070E090E080E0BCDC409130045091310400
:103DF00060913204709133048EE991E0CF918ACFC3
:103E000067E772E085DE6091B6047091B704809137
:103E1000B8049091B9040E943B7EAB01BC018EE6D0
:103E200092E080DE4091E6045091E7046091E8045E
:103E30007091E9048BE692E075DE4091EA045091BE
:103E4000EB046091EC047091ED0488E692E06ADE88
:103E500040916A0450916B0460916C0470916D0400
:103E600085E692E057CFCF93DF936BE172E050DEAF
:103E7000C6EAD4E04CA95DA96EA97FA982E192E0CF
:103E800051DE48AD59AD6AAD7BAD8FE092E04ADEC0
:103E90004CAD5DAD6EAD7FAD88E692E0DF91CF9128
:103EA00039CFCF93DF9367EF71E032DEC6EAD4E01B
:103EB0004CA15DA16EA17FA18EEE91E033DE48A5FD
:103EC00059A56AA57BA58EEA9AE12CDE4CA55DA5D5
:103ED0006EA57FA58BEA9AE125DE48A959A96AA9B2
:103EE0007BA988EA9AE11EDE8AE0DF91CF91C9CBF7
:103EF000CF93DF9362ED71E00BDEC6EAD4E0688118
:103F000079818A819B810E943B7EAB01BC0189EC57
:103F100091E008DE6C817D818E819F810E943B7ED5
:103F2000AB01BC018EEA9AE1FDDD688579858A8561
:103F30009B850E943B7EAB01BC018BEA9AE1F2DDDE
:103F40006C857D858E859F850E943B7EAB01BC0183
:103F500088EA9AE1E7DD8AE0DF91CF9192CB8DDCB0
:103F60008AE08FCBEC01162FAAD8209719F0A2DD9A
:103F7000CE01F5DF9CDD8BE99CE17FDC89EE93E0EF
:103F8000019739F000C00000EEE5F9E03197F0F755
:103F9000F7CFF89489EE93E0019739F000C0000064
:103FA000E6EEF3E03197F0F7F7CF89D8112321F04F
:103FB0000E945F13A895FECF0E942313FBCFEF92C0
:103FC000FF920F931F93CF93C82F7B018A0180919B
:103FD0009406833068F06BDDC7014FDC8FE698E014
:103FE0004CDCCF3FA9F48BE698E047DC8AE049DB64
:103FF00066D8A89580919B03811118C081E08093B9
:104000009B0382E0809394065AD860E0C801AADF3F
:10401000C7FDECCF89E698E030DC6C2FCC0F770B36
:10402000880B990B9DDB8AE02CDBE0CFCF911F91B1
:104030000F91FF90EF9008953F924F925F926F9291
:104040007F928F929F92AF92BF92CF92DF92EF9228
:10405000FF920F931F93CF93DF93EC015B014A0113
:10406000322EFA014080518062807380A301920158
:104070006D817E818F8198850E94377E8823A1F093
:104080004D825E826F8278867724739420E030E0E0
:10409000A901F40160817181828193810E94BD84B4
:1040A00018160CF0712C7C828C818230A1F0833048
:1040B00009F455C08130A9F52D813E814F81588585
:1040C000F50160817181828193810E94377E87FD35
:1040D00028C082E08C83F5012081318142815381A7
:1040E0006D817E818F8198850E9496822B013C0193
:1040F0000E9411104B015C01A7019601C301B2019E
:104100000E94377E1816FCF09801A8EEB3E00E94DA
:104110005982860E971EA81EB91E88829982AA828D
:10412000BB82DF91CF911F910F91FF90EF90DF90B5
:10413000CF90BF90AF909F908F907F906F905F9047
:104140004F903F90089588819981AA81BB81881AF8
:10415000990AAA0ABB0AB7FCE4CF83E08C8340E04B
:1041600055E160E175E1832DDF91CF911F910F91B2
:10417000FF90EF90DF90CF90BF90AF909F908F9087
:104180007F906F905F904F903F9019CF4DE858E02F
:104190006DE978E014CF80910904882319F010921A
:1041A0000904089560E08CE693E0DCDECF93C82F2D
:1041B00041E068E577E092DCC11101C07BDC80E57D
:1041C00097E05BDB8BE197E0CADE41E06EE377E0EE
:1041D0008C2F84DCC11101C06DDC81E297E04DDBE6
:1041E0008C2FE7DD8C2F32DD8C2F5BDE8C2F80DE79
:1041F0008C2F39DE8C2F04DE8C2F8FDD8C2F4DDD44
:104200008C2FCF91A8CDCF93C82FCB0136DB8FE871
:1042100093E033DB80E893E0CC2311F085E893E072
:10422000CF919DCECF9384EA93E027DB8CB1C1E0A0
:1042300085FB882780F96EE973E08C27E4DF8091A5
:1042400003018695817068E973E08C27DCDF89B112
:1042500083FB882780F962E973E08C27CF91D3CF65
:104260008091050C9091060C2FEF3FEF981751F0BD
:10427000E92FF0E0EB5FF34F228130E09F5F9F7703
:104280009093060CC9010895CF92DF92EF92FF92AE
:104290000F931F93CF938C01C62F09DCC090870C1E
:1042A000D090880CE090890CF0908A0CC801E5DA77
:1042B000C701B6016EDA8AE0E4D9D2DF0196E9F7E8
:1042C0008C2FE8DA10928C0C10928B0CCF911F91EE
:1042D0000F91FF90EF90DF90CF9008958F929F9273
:1042E000AF92BF92CF92DF92EF92FF920F931F9304
:1042F000CF93DF93B4E4A0E06A2F70E0AB014B0FE3
:10430000511D55954795411119C0EEEDF8E06591A5
:104310007491072E000C880B990B0E943D7EDF9153
:10432000CF911F910F91FF90EF90DF90CF90BF90B2
:10433000AF909F908F900895B42FE0CF4A1711F05F
:10434000B41303C0EAEEF9E0E2CF9A01215031093B
:10435000220F331F220F331FF901E452F74FE5906C
:10436000F490F901E052F74FC591D4918E159F0555
:1043700018F3A42FC817D90708F4BECFF901E252E9
:10438000F74F05911491F901EE51F74FC590D49074
:104390008E199F09BC0190E080E00E943B7E4B019A
:1043A0005C01B601601B710B072E000C880B990B8A
:1043B0000E943D7E9B01AC01C501B4010E949C7E20
:1043C0004B015C01CE19DF09BE0190E080E00E9444
:1043D0003B7E9B01AC01C501B4010E9473836B015C
:1043E0007C01B801110F880B990B0E943D7E9B0147
:1043F000AC01C701B6010E94978291CFCF93DF93A2
:10440000A89580913E0D90913F0D68DF6093400D1F
:104410007093410D8093420D9093430D8091120D46
:104420009091130D0E94A0116093140D7093150DBF
:104430008093160D9093170DC0913E0DD0913F0DB6
:1044400080910B0290910C02C817D90710F480E0FC
:104450009DDE8091440D9091450D181619066CF45F
:104460008091090290910A028C179D0730F44FEA5F
:1044700058E06EEB78E080E0A2DD2091C20330913D
:10448000C3038091120D9091130D8217930710F4BE
:104490008FEF7CDE8091180D9091190D181619067A
:1044A0009CF420910702309108028091120D9091A6
:1044B000130D2817390740F44FEA58E06EEB78E007
:1044C0008FEFDF91CF917BCDDF91CF9108954F9208
:1044D0005F926F927F928F929F92AF92BF92CF9294
:1044E000DF92EF92FF920F931F93CF93DF9300D051
:1044F0001F92CDB7DEB780919406811116C0A895A2
:104500000F900F900F900F90DF91CF911F910F910F
:10451000FF90EF90DF90CF90BF90AF909F908F90E3
:104520007F906F905F904F9008958091B6038111B6
:10453000E7CF81E08093B60380911604811103C018
:104540001092B603DDCF5ADF109216040E941110AC
:104550004B015C0160910F0270911002072E000C5C
:10456000880B990B0E943D7E2B013C01AC019B0105
:104570006091400D7091410D8091420D9091430DDD
:104580000E94BD84181614F480E000DE6091440D92
:104590007091450D072E000C880B990B0E943D7EF3
:1045A00069837A838B839C83C12CD12C30E8E32EE2
:1045B00030E4F32E08E210E020E0AE014F5F5F4FE1
:1045C00060E47DE08EEF9CE037DDC090400DD09040
:1045D000410DE090420DF090430D60910D027091FD
:1045E0000E02072E000C880B990B0E943D7E9B014A
:1045F000AC01C701B6010E94BD8418160CF0F6C0CC
:10460000A7019601C301B2010E94BD8418160CF0E7
:10461000EDC08091AE03811109C08CE39DE09093C1
:10462000AD038093AC0381E08093AE038CEA93E00A
:104630000E941D100E94DB83759567956093460D5F
:104640008091BD039091BE03A091BF03B091C003C0
:104650000097A105B105F1F0A5019401281B390BC4
:104660004A0B5B0BDA01C901B7FD14C06091400D24
:104670007091410D8091420D9091430D0E94DB831A
:104680002091BB033091BC03621773070CF4B0C0D8
:104690000E946B118091170490911804A091190445
:1046A000B0911A04A5019401281B390B4A0B5B0B2E
:1046B000DA01C901B7FD10C0D501C4018C53964F72
:1046C000AF4FBF4F8093170490931804A093190421
:1046D000B0931A040E94301220E030E046E153E427
:1046E0006091140D7091150D8091160D9091170D1C
:1046F0000E94BD84181614F48FEF48DD8091A80342
:104700009091A903A091AA03B091AB030097A105D2
:10471000B105D1F0881A990AAA0ABB0AB7FC14C0DD
:104720006091140D7091150D8091160D9091170DDB
:104730000E94DB832091A6033091A70362177307C1
:104740000CF45DC00E9429186091180D7091190D2C
:10475000072E000C880B990B0E943D7E69837A839B
:104760008B839C83C12CD12CE12C90E4F92E04E1A5
:1047700010E02FEFAE014F5F5F4F64E17DE087E017
:104780009DE05ADCC090140DD090150DE090160DF0
:10479000F090170D20E030E040EA50E4C701B60188
:1047A0000E94BD8487FD32C020E030E046E153E442
:1047B000C701B6010E94377E181644F180919E030E
:1047C000811109C080E19DE090939D0380939C033B
:1047D00081E080939E038CE993E00E941D100E946B
:1047E000DB837595679560931A0DAACE60E026CF9E
:1047F00040E255E164E375E180E0E1DB4BCF40E26C
:1048000055E164E375E18FEFDADB9ECF60E0EBCF3B
:10481000CF92DF92EF92FF926B017C0183E3C81687
:10482000D104E104F10468F082E3C81AD108E10878
:10483000F10862E370E080E090E00E94E00F47DE64
:10484000EDCFC701B6010E94E00FFF90EF90DF901F
:10485000CF903DCE80914A04882329F062E070E039
:1048600080E090E0D5CF0895DF92EF92FF920F9312
:104870001F93CF93DF931F92CDB7DEB78C01D42E59
:104880007C01E60EF71E8091FA0C9091FB0C0E94C1
:10489000EC818983DD2011F0F8018083CE0101963F
:1048A0000E94A10E8091FA0C9091FB0C01969093BE
:1048B000FB0C8093FA0C0F5F1F4F0E151F0519F7A5
:1048C00080E00F90DF91CF911F910F91FF90EF90BB
:1048D000DF9008954091140421E0422764E070E0E5
:1048E000C3CF4091140421E0422761E070E0BCCFC7
:1048F0004091140421E042276CE070E0B5CF409174
:10490000140421E0422761E070E0AECF409114042E
:1049100021E0422768E070E0A7CF4091140421E035
:1049200042276CE070E0A0CF41E061E070E09CCFF6
:1049300041E062E070E098CF4091140421E042270A
:1049400093CF9F92AF92BF92CF92DF92EF92FF925E
:104950000F931F93CF93DF931F92CDB7DEB78C01D8
:104960006C01C60ED71EF12CE12CC016D10609F43D
:104970004CC0A090FA0CB090FB0CF80191908F0104
:104980009982C5010E94EC81981689F1692DC501B3
:104990000E94F481FFEFEF1AFF0AC7018F77992772
:1049A000892BF9F062E070E080E090E00E94E00F77
:1049B000C5010E94EC8199818917C9F07BD881E8F3
:1049C0009CE10E943D1C81E00F90DF91CF911F91EF
:1049D0000F91FF90EF90DF90CF90BF90AF909F909E
:1049E000089562E070E080E090E012DFE1CFCE0158
:1049F00001960E94A10E8091FA0C9091FB0C0196F9
:104A00009093FB0C8093FA0CB0CF80E0DDCF64E094
:104A100070E097CF62E070E094CF61E070E091CFFA
:104A200061E070E08ECF6CE070E08BCFCF92DF92D0
:104A3000EF92FF920F931F93CF93DF93CDB7DEB723
:104A4000C958D1090FB6F894DEBF0FBECDBFC35809
:104A5000DF4F188219821A821B82CD57D040809175
:104A6000EB029091EC02A091ED02B091EE02CF57D3
:104A7000DF4F88839983AA83BB83C158D04084E6E3
:104A800090E09093FB0C8093FA0C1092FD0C109226
:104A9000FC0C64E070E0CE018F579F4F52DF809195
:104AA000FA0C9091FB0C02969093FB0C8093FA0CFD
:104AB0001092FD0C1092FC0C83E592E0CB57DF4F77
:104AC00099838883C558D040CE018B579F4FA2DF72
:104AD00081E0C757DF4F8883C958D040CE01875740
:104AE0009F4F9EDF68E470E086EA94E02ADF80E171
:104AF000ECE6F2E08E010F5F1F4FD80101900D929E
:104B00008A95E1F760E170E0C8011BDF8AE694E076
:104B10007EDF84E294E087DF7E018DE6E80EF11C03
:104B20008FEFF7018083C7017BDF19821A821B8216
:104B30001C82C8016CDF19821A821B821C82C80188
:104B400066DFC358DF4F188219821A821B82CD5745
:104B5000D04083E0EA968FAFEA97F7018083CE01D9
:104B600083589F4F54DFCE0187589F4F59DFC701AD
:104B700057DF80E09CE09A838983C8014BDF3AE0ED
:104B8000D32EDA94DD2029F0CE0183589F4F3FDFEA
:104B9000F8CF8CE0F80111928A95E9F7C80143DF5C
:104BA000C358DF4F188219821A821B82CD57D0401A
:104BB0002AE0D22EDA94DD2029F0CE0183589F4FCF
:104BC00026DFF8CF83E0C857DF4F8883C858D0402E
:104BD000C957DF4F8883C758D040CE0188579F4FB1
:104BE0001FDFCE0189579F4F1BDF80E09CE0EB96D3
:104BF0009FAF8EAFEB97CE0187589F4F0BDF88E0BA
:104C0000F701982F11929A95E9F7F80111928A9578
:104C1000E9F768E070E0C70194DE68E070E0C80181
:104C200090DEC358DF4F188219821A821B82CD573B
:104C3000D0409AE0C92ED12CF1E0CF1AD10829F04A
:104C4000CE0183589F4FE3DEF7CF1982DD24DA943B
:104C5000F701D082C801E1DEC701E2DE1982C80196
:104C6000DCDE80915C0D90915D0DA0915E0DB091A8
:104C70005F0D89839A83AB83BC8321E732EB47E2E4
:104C80005EE36091600D7091610D8091620D909175
:104C9000630D0E9473836D837E838F83988721E7E2
:104CA00032EB47E25EE36091640D7091650D809197
:104CB000660D9091670D0E949C7E69877A878B872D
:104CC0009C8780E090E0A0E8BFE38D879E87AF8758
:104CD000B88B198A1A8A1B8A1C8A64E170E0C801A1
:104CE00030DE84E190E09A838983C80193DE80916D
:104CF000300D9091310DA091320DB091330D89831B
:104D00009A83AB83BC8321E732EB47E25EE3609199
:104D1000340D7091350D8091360D9091370D0E94B4
:104D200073836D837E838F83988721E732EB47E21D
:104D30005EE36091380D7091390D80913A0D90913C
:104D40003B0D0E949C7E69877A878B879C876CE0ED
:104D500070E0C801F6DD8CE0ECE7F2E0D8010190EC
:104D60000D928A95E1F76CE070E0C801EADD1982E6
:104D7000C80156DE8FE78983C80152DED982C80197
:104D80004FDE85E0E8E8F2E0D80101900D928A95C7
:104D9000E1F765E070E0C801D4DD1982C8013DDEAD
:104DA00080E2EDE8F2E0D80101900D928A95E1F7FA
:104DB00060E270E0C801C5DDF7011082C7012DDE99
:104DC00084E394E02ADE80E394E021DEC358DF4FE1
:104DD000188219821A821B82CD57D040CE01835887
:104DE0009F4F15DE82E1F80111928A95E9F762E1A1
:104DF00070E0C801A6DD84E2EDEAF2E0D80101909E
:104E00000D928A95E1F764E270E0C8019ADD80E1D5
:104E1000D82EF8018D2D11928A95E9F760E170E0A6
:104E2000C8018FDD1A82198262E070E0C80189DD55
:104E3000C358DF4F188219821A821B82CD57D04087
:104E4000CE0183589F4FE3DDF8011192DA94E9F720
:104E500060E170E0C80175DD8CE6F80111928A9579
:104E6000E9F76CE670E0C8016CDDF7011082118291
:104E700012821382148215821682178268E070E013
:104E8000C7015FDD8CE0F70111928A95E9F7C957F8
:104E9000DF4F1882C758D04080E090E0A0E4B0E433
:104EA000ED968CAF9DAFAEAFBFAFED97C701BBDD49
:104EB000CE0189579F4FB4DDCE0187589F4FA7DDA4
:104EC0000091FA0C1091FB0C045611098091FC0C16
:104ED0009091FD0CF7019183808384E690E090939C
:104EE000FB0C8093FA0C64E070E083EE92E029DD25
:104EF000C70190DD0E945A1DB80183ED96E00E9423
:104F00006E1CF701C080D180F12CE12C86EC96E07C
:104F10000E943D1CC701B6010E94481B83EC96E02D
:104F20000E943D1C90E00335124039F00E94571D4D
:104F300085E697E00E943D1C92E081E0911180E0BF
:104F4000C757DF4F0FB6F894DEBF0FBECDBFDF915E
:104F5000CF911F910F91FF90EF90DF90CF90089528
:104F60008091550490915604009731F04AE050E04A
:104F700070E060E00C949A7B60E070E0CB010895F3
:104F8000EFDFCB010895ECDF97FD0AC0E9DF6F3F4B
:104F900071058105910509F02CF4E2DF862F089553
:104FA00080E008958FEF0895CF9384E50E94F01874
:104FB000C0E0882301F1E7DFC82F1816E4F40E944F
:104FC0005A1D8DE40E94411B609167047091680432
:104FD00090E080E00E94481B8DEF92E00E943D1C13
:104FE0006C2FCC0F770B880B990B0E94B01B8AE0BB
:104FF0000E94411BCFEF8C2FCF91089580915504D3
:1050000090915604892B39F0BEDF91E0811101C0E7
:1050100090E0892F089591E0FCCFCF93DF93C82FC4
:10502000D62F0E94F018882319F0DF91CF91E6CF98
:105030008C2F0E94A218811101C08D2FDF91CF917A
:1050400008954F925F926F927F92AF92BF92CF92EC
:10505000DF92EF92FF920F931F93CF93DF93109203
:105060003604109235042FE32093690410926804EB
:10507000109267041092510410925204109253043B
:10508000109254049C01E90198812F5F3F4F9032A8
:10509000D1F39E34C9F4898190ED980F9A3020F0B5
:1050A0008D3211F08B3281F422969E012F5F3F4F9B
:1050B000888180538A3008F46EC09E012F5F3F4F75
:1050C0008881803209F469C0D093FF04C093FE0444
:1050D0007E012FEFE21AF20A18816AE270E0C7013E
:1050E0000E945F85009731F0FC013197808180320A
:1050F000E1F311821D3421F0143511F01734E1F57C
:10510000F70180819FEFE91AF90A8032C9F38053D1
:105110008A3090F51093690490E080E06AE0AF0176
:105120004F5F5F4F689F9001699F300D1124C90147
:10513000C0972081820F911D27FD9A95FA01208149
:1051400020532A3060F39093680480936704DF0152
:1051500031962C912032D9F31D3459F58E319105B9
:1051600039F0E8F48731910519F08C31910509F592
:10517000B0933604A0933504DF91CF911F910F9126
:10518000FF90EF90DF90CF90BF90AF907F906F90A7
:105190005F904F900895E90188CFE9018ECF853760
:1051A000910538F08737910518F3803AE3E09E07C0
:1051B000F9F240E050E0BA0130E020E0C12CD12CFF
:1051C0007601C394FD0131960C91002309F48CC043
:1051D0000132F1F41D34E1F480329105C9F44093B9
:1051E0005104509352046093530470935404F09309
:1051F0003604E093350463E270E0CF010E945F85DE
:10520000009709F4B9CFFC011082B6CFDF01DACFE5
:1052100001540A3108F063C0DF01BD90D0E2AD2E29
:10522000BA1499F0A0EDAB0DAA3008F1AEE2BA12B3
:105230000EC0A181A053AA30D0F02115310519F478
:105240009F0121503109B12C16C0FD01E5CFADE21F
:10525000AA2EBA1419F0ABE2BA12EFCFA181B0EDC9
:10526000BA0FBA3020F0AE3241F7A281E3CFBE2EA2
:10527000BC1A309741F3A02FB0E02601370104C0DB
:10528000440C551C661C771C0A95D2F744295529F5
:1052900066297729A45FBC4FBC92A081A154AA3192
:1052A00008F4B4CFDF010191002309F48BCFD0EDD6
:1052B000BD2EB00ED9E0AD2EAB14A0F7D3EDBD2EB0
:1052C000B00EAA24A394AB1468F70B3259F3FD0176
:1052D00031960C91003209F075CFDF01F8CF21151E
:1052E0003105D9F69D01D9CF30933604209335048A
:1052F00040935104509352046093530470935404A8
:105300003BCF4F925F926F927F928F929F92AF921C
:10531000BF92CF92DF92EF92FF92CF93DF93EC0197
:105320002091C6043091C7044091C8045091C9042B
:105330006C857D858E859F850E949C7E0E94C88499
:105340006B017C012091C2043091C3044091C404DC
:105350005091C504688579858A859B850E949C7ECD
:105360000E94C8844B015C012091BE043091BF04AF
:105370004091C0045091C1046C817D818E819F81D8
:105380000E949C7E0E94C8842B013C012091BA049B
:105390003091BB044091BC045091BD046881798177
:1053A0008A819B810E949C7E0E94C8846093710DBB
:1053B0007093720D8093730D9093740D4092750DE0
:1053C0005092760D6092770D7092780D8092790DE3
:1053D00090927A0DA0927B0DB0927C0DC0927D0DC3
:1053E000D0927E0DE0927F0DF092800D90916B0D2A
:1053F00080916C0D981779F0DF91CF91FF90EF902D
:10540000DF90CF90BF90AF909F908F907F906F90E4
:105410005F904F90AFC6E9D60E949A15C82F81E7DA
:105420009DE00E947012CC2381F0DF91CF91FF901C
:10543000EF90DF90CF90BF90AF909F908F907F9034
:105440006F905F904F900C94A715DF91CF91FF90D4
:10545000EF90DF90CF90BF90AF909F908F907F9014
:105460006F905F904F900895CF93DF93CDB7DEB7E5
:1054700060970FB6F894DEBF0FBECDBF80E1EAE4BF
:10548000F2E0DE01119601900D928A95E1F7CE01CE
:10549000019637DF60960FB6F894DEBF0FBECDBF22
:1054A000DF91CF9108950F931F93CF93DF930AEB72
:1054B00014E0C3E9D4E0F801219131914191519177
:1054C0008F0160E070E080E89FE30E94738369933E
:1054D000799389939993F4E0C33ADF0761F7C4DFC6
:1054E000DF91CF911F910F910C94E5142F923F9271
:1054F0004F925F926F927F928F929F92AF92BF92E4
:10550000CF92DF92EF92FF920F931F93CF93DF938F
:1055100000D000D01F92CDB7DEB780914A029091A3
:105520004B02A0914C02B0914D028A839B83AC83C5
:10553000BD8340904E0250904F0260905002709098
:1055400051028090520290905302A0905402B09069
:105550005502C0905602D0905702E0905802F09049
:1055600059020E94E51481E08093470D0E94331593
:1055700007EB16E0A9E1B2E0BF83AE838BEA282EE9
:1055800086E0382E198289810E943E16F8018591A5
:105590009591A591B491EE81FF8181939193A1930F
:1055A000B193FF83EE83F10185919591A591B4911B
:1055B000EE81FF8180879187A287B387F981FF5FA2
:1055C000F9830C5F1F4F84E0280E311CF330D9F6AD
:1055D0006ADF2A813B814C815D8160914A02709132
:1055E0004B0280914C0290914D020E94377E8111B6
:1055F0002AC0A301920160914E0270914F028091E6
:105600005002909151020E94377E81111CC0A50169
:1056100094016091520270915302809154029091D2
:1056200055020E94377E81110EC0A701960160913C
:1056300056027091570280915802909159020E942F
:10564000377E8823D1F027960FB6F894DEBF0FBEC1
:10565000CDBFDF91CF911F910F91FF90EF90DF9021
:10566000CF90BF90AF909F908F907F906F905F9002
:105670004F903F902F900C94011E27960FB6F894F0
:10568000DEBF0FBECDBFDF91CF911F910F91FF9075
:10569000EF90DF90CF90BF90AF909F908F907F90D2
:1056A0006F905F904F903F902F900895A6EAB4E0DE
:1056B00090E080E0FC01E15EF74F459155916591E6
:1056C00074914D935D936D937D93FC01E15FF74F72
:1056D000459155916591749150964D935D936D935D
:1056E0007C935397FC01E150F84F4591559165919A
:1056F000749190964D935D936D937C9393970496DC
:1057000080319105B9F680E29EE4A0E0B0E080939C
:10571000B6049093B704A093B804B093B90480E0A2
:1057200090E0A8E4B4E48093DA049093DB04A093BF
:10573000DC04B093DD0480E090E4ACE1B6E4809357
:10574000DE049093DF04A093E004B093E10480E0D2
:1057500090E0AAEFB4E48093E2049093E304A09372
:10576000E404B093E5041092E6041092E70410926A
:10577000E8041092E9041092EA041092EB041092EB
:10578000EC041092ED048FE692E1A3E0BDE3809378
:105790006A0490936B04A0936C04B0936D04109210
:1057A00024041092250410922604109227041092CB
:1057B00028041092290410922A0410922B041092AB
:1057C0002C0410922D0410922E0410922F0483ECBE
:1057D00095EFA4E1B1E480935C0D90935D0DA093EF
:1057E0005E0DB0935F0D84EB9CE2AFEBBDE3809365
:1057F000600D9093610DA093620DB093630D8DE6E3
:1058000092E9A6E6B3E48093640D9093650DA093AE
:10581000660DB093670D85E89BEEA8EBB2E480932C
:10582000300D9093310DA093320DB093330D8CE673
:1058300094EFA8E2B0E48093340D9093350DA093DB
:10584000360DB093370D8AE898E5AAE4B4E4809366
:10585000380D9093390DA0933A0DB0933B0D1092F3
:10586000340480E090E0A0EEBFE380933004909396
:105870003104A0933204B093330410924A0410927E
:1058800049040E942A2432DE0E945A1D89EF96E0C4
:105890000C94AF1F4F925F926F927F928F929F9264
:1058A000AF92BF92CF92DF92EF92FF920E949A1531
:1058B00090916C0D90936B0D90936A0D9093690D80
:1058C00094E69093680D21ED33E03093A404209387
:1058D000A30481110E94A71581E08093890385D4D8
:1058E00080E00E94B4152B013C014092320350929B
:1058F0003303609234037092350381E00E94B41543
:105900004B015C018092360390923703A0923803DA
:10591000B092390382E00E94B4156B017C01C09201
:105920003A03D0923B03E0923C03F0923D0383E0C4
:105930000E94B41540924A0250924B0260924C026F
:1059400070924D0280924E0290924F02A0925002AD
:10595000B0925102C0925202D0925302E09254028D
:10596000F09255026093560270935702809358024A
:1059700090935902FF90EF90DF90CF90BF90AF903F
:105980009F908F907F906F905F904F906DCD2F92F2
:105990003F924F925F926F927F928F929F92AF92BF
:1059A000BF92CF92DF92EF92FF920F931F93CF930C
:1059B000DF9380910005843008F065C111E601E0B5
:1059C00080910005843008F05EC18091050C9091B3
:1059D000060C891B8F7709F456C10E94302197FF6E
:1059E0000BC00E94571D8DE49CE10E943D1C8091DC
:1059F000050C8093060CE4CF8A3019F08D3009F045
:105A000005C11092ED0C80918B0C90918C0CFC01D7
:105A1000E957F34F1682892B19F40E946722D0CFE1
:105A200010928C0C10928B0CCDE8DCE0FE01819181
:105A3000803209F449C08E3409F07DC068E47CE10D
:105A4000CE010E94EE7D7C01892B41F06EE470E076
:105A5000CE0104960E945F85009709F4CE014AE0CA
:105A600050E070E060E001960E949A7B4B015C017F
:105A70008091870C9091880CA091890CB0918A0C30
:105A8000AC01BD014F5F5F4F6F4F7F4F841695068E
:105A9000A606B706D9F0EF28C9F4AC01BD01415004
:105AA00051096109710984169506A606B70634F0F6
:105AB00088159905AA05BB050CF082CF60E085E149
:105AC0009CE10E9444217CCFEF01B0CF6AE270E0FC
:105AD000CE010E947F859C01009709F1982F9C1BA5
